:020000040800F2
:10000000B00B0020C9010008B12A0008DF1F00085A
:1000100000000000000000000000000000000000E0
:10002000000000000000000000000000712B00082C
:100030000000000000000000B32A0008732B000835
:10004000DB01000800000000DB010008DB01000804
:10005000DB010008DB010008DB010008DB01000810
:1000600000000000DB010008DB010008B907000800
:10007000DB010008DB010008DB01000800000000D4
:10008000DB0100080000000000000000F92B000860
:1000900000000000DB010008DB010008E11F000890
:1000A00000000000DB01000800000000DB01000888
:1000B00000F002F800F040F80CA030C8083824180E
:1000C0002D18A246671EAB4654465D46AC4201D190
:1000D00000F032F87E460F3E0FCCB6460126334282
:1000E00000D0FB1AA246AB463343184754340000F5
:1000F00074340000103A02D378C878C1FAD8520795
:1001000001D330C830C101D504680C6070470000CD
:100110000023002400250026103A01D378C1FBD823
:10012000520700D330C100D50B6070471FB500F0F7
:10013000FFF81FBD10B510BD00F00BFB1146FFF717
:10014000F5FF03F0DDF800F023FB03B4FFF7F2FF47
:1001500003BC00F029FB000030B40C490C684A686D
:1001600023681068C0181060241D121D8C4207D22D
:100170008A4208D20C604A6030BC40004008704798
:100180000C00DC3CF6E70A00DC3AF3E74805002007
:1001900070B505460C46164602E00FCC0FC5103E62
:1001A000102EFAD2082E02D303CC03C5083E042E2B
:1001B00007D301CC01C5361F03E021782970641CE8
:1001C0006D1C761EF9D270BD07488047074800476E
:1001D000FEE7FEE7FEE7FEE7FEE7FEE70448054927
:1001E000054A064B70470000F52B0008B1000008D7
:1001F000B0050020B00B0020B0070020B0070020A1
:10020000FEB5054610460C46184373D0AE468C46E4
:100210000020AD1A01469C4167D3664600270124A1
:100220003D46B61A9D4102D313463A4621246546FF
:1002300076462F04360C3E432D0CB61A9D4104D34E
:10024000150C1B042B4312041034654676462F060A
:10025000360A3E432D0AB61A9D4104D3150E1B02E1
:100260002B4312020834654676462F0736093E4373
:100270002D09B61A9D4104D3150F1B012B43120102
:10028000241D65467646AF07B6083E43AD08B61A4C
:100290009D4104D3950F9B002B439200A41C6546FF
:1002A0007646EF0776083E436D08B61A9D411AD38D
:1002B00092185B41641C16E0001876466546494179
:1002C000B71A9D410191009009D36046B11A984137
:1002D0008E468446009801990025401C6941DD073F
:1002E00052082A435B08641EE6D57246634603B093
:1002F000F0BDFFE700200146C046C0462A4623461F
:10030000F5E700000B4A30B511460B4C60310B4647
:10031000DC3B0CC1372106E0020C8D0012185A514B
:10032000064A504300190A46491E002AF4DC30BD33
:100330000120E7E7E8040020E119D666CD0D0100B1
:10034000F8B5042A2CD3830712D00B78491C03700C
:10035000401C521E83070BD00B78491C0370401CB5
:10036000521E830704D00B78491C0370401C521E98
:100370008B079B0F05D0C91ADF002023DE1B08C99D
:100380000AE0FFF705FFF8BD1D4608C9FD401C4601
:10039000B4402C4310C0121F042AF5D2F308C91A26
:1003A000521EF0D40B78491C0370401C521EEAD434
:1003B0000B78491C0370401C012AE4D409780170B1
:1003C000F8BD01E004C0091F0429FBD28B0701D549
:1003D0000280801CC90700D00270704700290BD032
:1003E000C30702D00270401C491E022904D38307B0
:1003F00002D50280801C891EE3E70022EEE700227E
:10040000DFE7002203098B422CD3030A8B4211D36E
:1004100000239C464EE003460B433CD40022430895
:100420008B4231D303098B421CD3030A8B4201D385
:1004300094463FE0C3098B4201D3CB01C01A52411D
:1004400083098B4201D38B01C01A524143098B426D
:1004500001D34B01C01A524103098B4201D30B0156
:10046000C01A5241C3088B4201D3CB00C01A52417B
:1004700083088B4201D38B00C01A524143088B4240
:1004800001D34B00C01A5241411A00D201465241D9
:10049000104670475DE0CA0F00D04942031000D3F8
:1004A0004042534000229C4603098B422DD3030A4D
:1004B0008B4212D3FC22890112BA030A8B420CD35D
:1004C000890192118B4208D3890192118B4204D386
:1004D00089013AD0921100E08909C3098B4201D306
:1004E000CB01C01A524183098B4201D38B01C01A40
:1004F000524143098B4201D34B01C01A52410309B7
:100500008B4201D30B01C01A5241C3088B4201D365
:10051000CB00C01A524183088B4201D38B00C01A12
:100520005241D9D243088B4201D34B00C01A5241E9
:10053000411A00D20146634652415B10104601D376
:100540004042002B00D54942704763465B1000D300
:10055000404201B50020C046C04602BD704770470A
:1005600070470000F0B5FF252D04C609C209FF271A
:1005700004462E400137CB093E4348402A402B40D9
:100580000746002A6BD0002B69D0AA4267D0AB4245
:1005900065D0002800DA32460125ED0529432C43B9
:1005A00009022002090AD21A4B0C7F24E31A434C99
:1005B000000A7C44E35C7D242404121914145B00BB
:1005C000A218884201D3521C00E0400049420C4668
:1005D0005C4324115C43DB016415E318040A5C43AB
:1005E000C502200D0C4644436419250A5D432303CC
:1005F000EC0C0D46654300030019EB184C42A34276
:1006000001D35B18401CD4052018002B07D05B00D9
:10061000C91804D3401C002901D1400840003F21E3
:1006200089048A4209D3002A08DC1106090F04D084
:10063000032149074018C00FC007F0BD0122410047
:10064000120689187F2252069142F6D205214907E7
:10065000C84201D59010F0BDFF20C005F0BD002FAD
:1006600000DA32461648AA4207D2AB4205D2190236
:10067000090E17D0F80FC007F0BDFF2563002D0647
:10068000AB42F9D84900A942F6D8AB4201D1A94200
:10069000F2D0A94201D1002101E061004908D00552
:1006A0000843F0BD1102090EFBD0FF200243D00524
:1006B000F0BD0A460146104654E700004A2F0000EC
:1006C0000000C07F0102C21504D00123DB071943DB
:1006D000002A0ADB9E239A1A02D40846D0407047AB
:1006E000FF2241001206914201D900207047C01735
:1006F000C04370471F22030C02D10F2200041CD0FC
:10070000030E01D10002083A030F01D10001121FAC
:10071000830F01D18000921E002801DB4000521E91
:10072000D2055118021251181922904004D3491CC5
:10073000002801D14908490008467047C10FC90780
:1007400000D04042012292071143D3E701218907DB
:10075000D0E7754600F024F8AE46050069465346DA
:10076000C008C000854618B020B5FFF737FD60BC53
:1007700000274908B6460026C0C5C0C5C0C5C0C5CB
:10078000C0C5C0C5C0C5C0C5403D49008D46704705
:1007900010B50446C046C0462046FFF7D6FC10BD43
:1007A000004870475005002001491820ABBEFEE705
:1007B000260002007047000010B5024800F053F810
:1007C00010BD00008801002010B5044600680549EE
:1007D00040181421FFF715FE800020640248E063F2
:1007E00010BD0000F8FFFDBF0000024030B5056CF1
:1007F0000124AC40C56B6C60046863604368102BD7
:10080000036803D099600068C26030BD9A600068D8
:10081000C16030BD72B6FEE770B5002401462031DC
:100820004A78022A03D004218163012416E0026879
:1008300013680E25AB431360026813685B085B0006
:1008400013600122056C1346AB40C56B6B604A70A8
:1008500000220A70416B002900D08847204670BDF5
:10086000203040787047F0B4C16B0D6801680C68A7
:100870000422066C1346B3402B420DD063070BD500
:100880000B689B0602D40B6893430B60016C8A4093
:10089000C16B4A60C16A19E00227B74002462F4087
:1008A00001232032002F15D0A70713D50C68A4060A
:1008B00004D40C680A25AC430C605370036C02210D
:1008C0009940C36B596000211170816A002916D0CC
:1008D000F0BC08470827B7402F4210D024070ED598
:1008E0000C680E25AC430C60046C1946A140C46B27
:1008F00061608363537000211170016BE6E7F0BC07
:100900007047000070B5040021D00221204620303D
:1009100005464170226811680E48A368014060686E
:1009200026691843E3683343184363691843A3698E
:100930001843E3691843084310602046FFF744FF5B
:100940000021A163012068702970084670BD012054
:1009500070BD00000FC0FFFFF8B504468C46203084
:1009600001780025012909D0012606704178002769
:10097000012905D0077002252846F8BD0220F8BDE0
:1009800002214170A763206801684908490001609D
:1009900061462046FFF72AFFE06A002820680168C8
:1009A00002D00E22114306E00A22114301602068A2
:1009B00001680422914301602068016831430160AD
:1009C000DAE7000070B5044600F0ECF80546601C5C
:1009D00002D004480078241800F0E4F8401BA0423C
:1009E000FAD370BD38000020F8B500230324012598
:1009F000BAE02E469E40B44632407CD00E79B6070F
:100A0000B60F012E01D0022E17D186682746B646B2
:100A10005E00B74000967646BE43B646CF68009E5D
:100A2000B74076463743876046686746BE430F79CE
:100A3000FF06FF0F9F40374347600E79F643B60726
:100A40000ED0C6682746B4465E00B646B740664636
:100A5000BE43B4468F687646B74066463743C760A4
:100A60000E79B607B60F022E14D1DE08B60036187E
:100A70000096366A5F07B446FE0E0F27B646B740AB
:100A80006646BE43B4460F697646B740664637436E
:100A9000009E376206682746B4465E00B646B740F9
:100AA0006646BE430F79B446BF07BF0F7646B740D0
:100AB0006646374307604E68B603B60F53D02D4FD6
:100AC000BE692E43BE61BE699F08F607F60F2A4E27
:100AD000BF00BE190096B6680F27B4469E07360FB2
:100AE000B646B7406646BE430927FF06B446B8423D
:100AF00002D1002710E036E0204FB84201D1012793
:100B00000AE01F4FB84201D1022705E01D4FB8424D
:100B100001D1032700E005277646B74066463743F4
:100B2000009EB760184EB6684F689643FF0200D526
:100B30001643154FBE60FE684F689643BF0200D54E
:100B40001643114FFE607E684F689643BF0300D581
:100B500016430D4F7E603E684F689643FF0300D5F5
:100B60001643094A16605B1C0A681646DE4000D030
:100B70003FE7F8BD001002400000014000040048BB
:100B800000080048000C00480004014000690840CB
:100B900000D001207047002A01D081617047816236
:100BA000704700000148806870470000380000204E
:100BB00070B5024640325378202B1CD11378012B9C
:100BC00019D00123137024245470046825689D43B0
:100BD0002560046825681E03B54325600468256800
:100BE0000D432560006801681943016020205070A2
:100BF0000020107070BD022070BD70B502464032FA
:100C00005378202B1BD11378012B18D0012414709A
:100C10002423537003681D68A5431D6005682B6875
:100C20000F263602B34309021943296000680168A0
:100C300021430160202050700020107070BD022000
:100C400070BD7047704770B503689A691968D243E0
:100C5000D40508D4CC43240605D4446C01252C4388
:100C600044642C02DC61530509D4CB431B0606D433
:100C7000436C082423434364E3010468E361920561
:100C800009D4C943090606D4416C022211434164C8
:100C900011020268D161416C0B22114201D001F0B6
:100CA00037FA70BD026891691268436B002B00D05F
:100CB000184770477047000070B5040006D02546FD
:100CC000403568780026002802D005E0012070BD7C
:100CD0002E70204600F04CF82420687020680168CF
:100CE0004908490001600F216068090688432168AE
:100CF000086121688A680120C00382438A60E16834
:100D00000129A16808D02122920211432268916032
:100D1000E168022902D005E00143F7E701212268DA
:100D2000C902516021684A680F4B1A434A60216822
:100D3000CA688243CA60616920690843A1690902DF
:100D400008432168C860216AE06908432168086097
:100D500020680168012211430160666420206870E8
:100D60002663AE70002070BD008000027047000056
:100D700010B586B0044614216846FFF740FB1749BA
:100D80002068884228D1164C616901204004014343
:100D900061616169014003200591400200901220C9
:100DA0000190002002900320039004200490092069
:100DB0006946C006FFF718FEE169012040050143BE
:100DC000E161E1690022014005911146172000F020
:100DD000A3F9172000F094F906B010BD00540040AC
:100DE0000010024070477047FFB505460446403585
:100DF000687881B0164620287ED10298002829D034
:100E0000002E27D0287801287FD001202870FFF7F6
:100E1000C9FE0746222068702020A8700020606468
:100E2000029961626685618D2185606320684168F1
:100E30000126F603B14341600097002208212046B5
:100E4000049B01F026FC002808D02068416831434B
:100E5000416029E001204002606425E0216808200B
:100E6000C8614103009701222046049B01F011FC58
:100E70000028EAD127E001F03DFC0028206816D0C8
:100E800041683143416020688169C94349070BD4F7
:100E9000406A616A0870606A401C6062608D401E32
:100EA0006085208D401E2085012005B0F0BD406A80
:100EB000616A0870606A401C6062608D401E6085D7
:100EC000208D401E2085608D049900283A462046DA
:100ED000D1D101F05DFC0028B7D121682020C86184
:100EE0000097012231462046049B01F0D2FB0028E6
:100EF000ABD12068416800E007E031434160202029
:100F000068700020A8702870CFE70220CDE7FFB5F9
:100F1000054604464035687881B0174620287DD1C3
:100F20000298002823D0002F21D02878012875D0DE
:100F300001202870FFF736FE064621206870202029
:100F4000A870002060640299616267856063206810
:100F500041680127FF03B943416000960022082140
:100F60002046049B01F095FB002868D103E0012096
:100F70004002606467E00121206A4904884209D187
:100F8000606A216800788862606A401C6062608DD7
:100F9000401E608521680820C861E06802280BD1E6
:100FA0000096002208212046049B01F072FB0028D5
:100FB00045D121680820C86101210096002209045A
:100FC0002046049B01F065FB002838D110E0324632
:100FD0002046049901F007FC002830D1606A21689E
:100FE00000788862606A401C6062608D401E608587
:100FF000608D0028EBD10096002210212046049B32
:1010000001F047FB00281AD1204601F032F8216890
:101010001020C86132462046049900E020E001F02B
:10102000B7FB00280BD121682020C861009601225F
:1010300039462046049B01F02CFB002806D020688E
:10104000416839434160012005B0F0BD2068416826
:1010500039434160202068700020A8702870F3E7B1
:101060000220F1E7024881680278891881607047A0
:101070003800002010B506480168102211430160B5
:10108000032000F007F800F027F8002010BD000052
:101090000020024070B504460D4D7D202978C00027
:1010A000FFF7AFF901460B480068FFF7AAF900F017
:1010B00021FB002809D1042C07D200222146401E22
:1010C00000F02AF800206C6070BD012070BD0000A7
:1010D000380000204400002008B50848816901223A
:1010E00011438161816911400091C26901040A4381
:1010F000C261C0690840009008BD000000100240B5
:10110000002805DBC106C90E01208840014908609E
:101110007047000000E100E010B501F075FF10BD60
:10112000F8B505460068354CC00352D5E069002685
:10113000C00007D4E16920040143E161E169014095
:10114000012600912E480168C90510D40168821556
:1011500011430160FFF726FD074604E0FFF722FD7B
:10116000C01B642824D826480068C005F6D5206A2C
:1011700003273F02384020D06968394081421CD0A3
:10118000206A226AB843012109040A432262226AC2
:101190008A4322622062C0070FD0FFF703FD009050
:1011A00008E0FFF7FFFC0099411A1648814201D977
:1011B0000320F8BD206A8007F3D5206A6968B84328
:1011C00008432062002E04D0E1690120000781431A
:1011D000E1612878C00705D0206BA96880088000ED
:1011E000084320632878800605D5206B10218843AA
:1011F000E968084320630020F8BD000000100240A9
:101200000070004088130000F8B50F46060059D062
:101210003A4D2868C007C00FB84209D22868400874
:101220004000384328602868C007C00FB84249D141
:101230003068334C81070CD5400704D5606807211E
:101240000902084360606068F0218843B168084380
:1012500060603078C00726D0706801280ED0216801
:1012600002280ED0890700292CDA616889088900D4
:1012700001436160FFF796FC00900DE0216889034F
:10128000F1E78901EFE7FFF78DFC0099411A1D484E
:10129000814201D90320F8BD60680C2108407168C3
:1012A00089008842EFD12868C007C00FB8420BD927
:1012B000286840084000384328602868C007C00FED
:1012C000B84201D00120F8BD3078400706D56068EB
:1012D000072109028843F1680843606000F018F8AC
:1012E0006168094A0906090F515CC840074908604E
:1012F0000320FFF7CFFE0020F8BD000000200240D1
:101300000010024088130000F03400084400002060
:1013100010B5114A51680C200B4603400F48042BAE
:1013200002D0082B01D00E4810BD8B020D4C1B0FB4
:10133000E45CD26A0B4B1207120F10339A5CC9039C
:1013400005D500231946FEF75BFF214601E0204644
:10135000054901F041FE10BD00100240001BB7001E
:1013600000127A00D034000800093D00FEB50400E8
:1013700070D02078DC4DC0074AD068680007800F25
:10138000012807D068680007800F022809D1686823
:10139000C00306D5286880033AD560680028E7D0E6
:1013A00036E06168012914D001208004002901D0B1
:1013B000052914D02A68012109048A432A60296872
:1013C000814329606068002816D0FFF7EBFB0646D2
:1013D0000EE028680121090408432860F2E7296823
:1013E00001432960F5E7FFF7DDFB801B64286ED819
:1013F00028688003F7D50BE0FFF7D4FB064604E02E
:10140000FFF7D0FB801B6428F1D828688003F7D44D
:1014100020780126800700283CDA68680007800FE2
:1014200007D068680007800F022809D16868C003E8
:1014300006D42868800716D5E06801280AD112E092
:10144000E0680028286816D030432860FFF7AAFB20
:10145000074605E043E1FFF7A5FBC01B0228C6D8FD
:1014600028688007F7D52868F82188432169C900D2
:10147000084328600EE0400840002860FFF792FB18
:10148000074604E0FFF78EFBC01B0228AFD8286890
:101490008007F7D42078000722D5E0690028686A21
:1014A0000ED030436862FFF77DFB074604E0FFF78C
:1014B00079FBC01B02289AD8686A8007F7D50FE02D
:1014C000400840006862FFF76DFB074605E09DE0BD
:1014D000FFF768FBC01B022889D8686A8007F7D429
:1014E000207804274007002860DA00200190E8698E
:1014F000C00008D4E969B8060143E961E96901401F
:1015000001200091019079480168C90511D4016852
:10151000821511430160FFF745FB009005E0FFF7DE
:1015200041FB0099401A642870D870480068C005D3
:10153000F5D5A06801280AD0002801D0052810D0D0
:10154000286A400840002862286AB84301E0286AF7
:1015500030432862A068002812D0FFF723FB0090D8
:101560000AE0286A38432862F1E7FFF71BFB00997D
:10157000411A5F48814249D8286A8007F5D50DE0B5
:10158000FFF710FB009006E0FFF70CFB0099411AF3
:10159000574881423AD8286A8007F5D40198002834
:1015A00004D0E969012000078143E9612078C00681
:1015B00035D5606901280CD0401D686B23D03843B5
:1015C0006863686B400840006863FFF7EBFA064603
:1015D00022E0686B38436863686B30436863FFF7E9
:1015E000E1FA064604E0FFF7DDFA801B02285BD82B
:1015F000686B8007F7D5686BF8218843A169C9003B
:10160000084368630BE0B8436863F4E74CE0FFF716
:10161000C9FA801B022847D8686B8007F7D4206A74
:1016200000285ED069680907890F022942D0012687
:1016300036060228286805D0B0432860FFF7B2FAC2
:10164000044633E0B0432860FFF7ACFA074604E0F5
:10165000FFF7A8FAC01B022826D828688001F7D413
:10166000E86AE16A000900010843E862616AA06A69
:10167000084369683D221204914308436860286862
:1016800030432860FFF78EFA044604E0FFF78AFA39
:10169000001B022808D828688001F7D521E0FFF751
:1016A00081FA001B022801D90320FEBD28688001B1
:1016B000F5D416E00128F8D06868E96A012212041E
:1016C000636A02409A420AD10907E26A090F91420D
:1016D00005D10F2189040840A16A884201D0012068
:1016E000FEBD0020FEBD0000001002400070004062
:1016F00088130000094910B5401E884201D9012015
:1017000010BD074C60610321081F01F07DFC002023
:10171000A06107202061002010BD0000FFFFFF0036
:1017200000E000E07047704730B5034620331A7F71
:10173000012A26D001221A770325CA682D02AA435E
:101740008D6800242A430125AD02AA434D68006834
:101750002A430125ED02AA430D682A4301252D03E2
:10176000AA430D692A4301256D03AA434D69C9693E
:101770002A430125AD03AA430A4342641C77002093
:1017800030BD022030BD0000F0B502462032137F8C
:10179000012B1BD0012616770223537705686B684F
:1017A000AC687027BB430F681F436F600068084B2D
:1017B000984202D0074B984204D1802349689C4349
:1017C00021438160567700201077F0BD0220F0BDE4
:1017D000002C01400004004070B504460222403451
:1017E0000546002908D004290BD008290ED06079BD
:1017F000012810D0012070BDA0780128FAD1A27074
:101800000AE0E0780128F5D1E27005E020790128AE
:10181000F0D1227100E062710422286801F03DFAE3
:101820002868416C0122D20311434164084A2868A8
:101830000121904202D0074A904204D182685207A7
:10184000520F062A02D002680A430260002070BDCF
:10185000002C01400004004070B5040005D025466E
:101860002035687F002802D006E0012070BD0020EE
:101870002877204600F014F802206877211D2068A0
:1018800001F0C2F901204034A071A877E8772070F8
:101890006070A070E070207160716877002070BD8A
:1018A00008B5104A01681048914207D18269C114F5
:1018B0000A43826180690840009008BD0B4A91424A
:1018C000FBD1C26989150A43C261C069012208407F
:1018D000009000211320FFF71FFC1320FFF710FCDE
:1018E00008BD0000002C0140001002400020004014
:1018F000014620314A7F012A01D00120704702228F
:101900004A770268D36801210B43D3600068084A14
:10191000904202D0074A904204D182685207520F87
:10192000062A02D002680A430260002070470000C5
:10193000002C014000040040F8B50546044620355F
:10194000287F0026012817D00120287702206877F9
:10195000226890687727FF23B8431B029843906062
:101960000868502838D00EDC20284FD006DC00282C
:101970004CD010281ED149E00220F8BD302845D0B7
:10198000402817D13AE060282ED0702819D00122C3
:101990001203801A0FD090420CD1CB684A68896834
:1019A000206801F000FA2068816801229203114347
:1019B000816000E00126012068770020287730460A
:1019C000F8BDCB684A688968206801F0ECF92168A5
:1019D000886838438860EEE7CA684968206801F083
:1019E000D7FA5021206806E0CA684968206801F0EB
:1019F000E0FA6021206801F0E1F9DCE7CA68496893
:101A0000206801F0C5FA40212068F4E72268014609
:101A10001046F0E77047704770B5044600680169EA
:101A20000025C9438907002915DBC168C943890717
:101A300011D4E91E016101202077206880698007A8
:101A4000204602D0FFF7E7FF04E000F0D1F820467F
:101A500000F08CF9257720680169C943490717D43C
:101A6000C168C943490713D40421C9430161022055
:101A70002077206880698005800F204602D0FFF71C
:101A8000CAFF04E000F0B4F8204600F06FF92577B3
:101A900020680169C943090716D4C168C943090709
:101AA00012D40821C9430161042020772068C0694D
:101AB0008007204602D0FFF7AEFF04E000F098F860
:101AC000204600F053F9257720680169C943C9060B
:101AD00017D4C168C943C90613D41021C943016191
:101AE000082020772068C0698005800F204602D03A
:101AF000FFF791FF04E000F07BF8204600F036F994
:101B0000257720680169C943C90708D1C168C9435D
:101B1000C90704D1891E0161204600F0F1F920684F
:101B20000169C943090609D4C168C943090605D436
:101B30008021C94301612046FFF7F4FD2068016957
:101B4000C943490609D4C168C943490605D440219F
:101B5000C9430161204600F041FA20680169C94388
:101B6000890609D4C168C943890605D42021C9431F
:101B700001612046FFF7D7FD70BD000070B586B04B
:101B8000044614216846FEF73AFC2568154E0124E8
:101B900009200021144A64040223C006B5420CD176
:101BA0005569254355615269029122400592802270
:101BB00001930493009203910FE00C4EB5420FD1B4
:101BC0005569254355615269029122400592402290
:101BD000039101210193009204916946FEF704FFED
:101BE00006B070BD002C014000100240000400400F
:101BF0007047F8B5064604462036307F00270D466C
:101C000001280ED001203077002A0CD0042A1BD0E6
:101C1000082A2FD00C2A3ED00127002030773846E2
:101C2000F8BD0220F8BD206801F0D0F82068816975
:101C30000822114381612068826904218A438261FC
:101C4000206881692A6912E0206801F0FBF82068A9
:101C500082690121C9020A438261206881690122E7
:101C6000920291438161206881692A6912021143BD
:101C70008161D2E7206801F01FF92068C16908225C
:101C80001143C1612068C26904218A43C26120688E
:101C9000C1692A6912E0206801F04AF92068C16927
:101CA0000122D2021143C1612068C2690121890267
:101CB0008A43C2612068C1692A6912021143C16165
:101CC000ABE770B5040005D025462035687F0028B5
:101CD00002D006E0012070BD00202877204600F0E9
:101CE00015F802206877211D206800F08DFF012083
:101CF0004034A071A877E87720706070A070E07021
:101D0000207160716877002070BD000038B505460D
:101D100000681249884220D11148C26902210A4351
:101D2000C261C069104C084000900E48206010202D
:101D300060608021E1600020A0608900216189004D
:101D4000A0616161E0612046FEF7DCFD002801D062
:101D5000FEF760FD6C62AC63656238BD0004004054
:101D60000010024044000240880100207047704784
:101D7000F8B5044600200D4600902146204620314B
:101D800040309446002D0AD0042D0DD0082D10D0DF
:101D90004278022A12D04278012A11D075E08A7F57
:101DA000022A0BD08A7FF7E7CA7F022A06D0CA7FB1
:101DB000F2E70278022A01D00278EDE70220F8BDAE
:101DC0006246002A61D0002B5FD00226454F464A6A
:101DD000002D09D0042D18D0082D27D046700C2DC9
:101DE00044D0012000907BE08E77606A8762606A51
:101DF000C262616A3D480863226861463432606AA3
:101E0000FEF7AAFD002840D121E0CE77A06A8762C4
:101E1000A06AC262A16A3548086322686146383206
:101E2000A06AFEF799FD00282FD115E00670E06A40
:101E30008762E06AC262E16A2C48086322686146F0
:101E40003C32E06AFEF788FD00281ED109E02068D8
:101E5000C168012252021EE02068C168012292027C
:101E600019E02068C1680122D20214E0206B876269
:101E7000206BC262216B1D480863226861464032B4
:101E8000206BFEF769FD002801D00120F8BD206815
:101E9000C168012212031143C16001222946206852
:101EA00000F0EEFE12492068884205D0114A9042A7
:101EB00002D0114A904204D1426C0123DB031A4341
:101EC000426420680122884202D00C49884204D131
:101ED00081684907490F062902D001681143016052
:101EE0000098F8BDB52C00081B2D0008532D0008E4
:101EF000002C014000440140004801400004004023
:101F000070B5284988424BD101F022F92648274A6A
:101F10000168914201DC491C03E0254A914201D04D
:101F2000511E0160234C002520780A2804D2401C51
:101F3000C0B220700A2810D31F480068FEF7FEFBCD
:101F40001E49FEF70FFB1E4901F06AFAFEF7BAFBC5
:101F5000144990390968486325701A497D22086838
:101F60001201401C08606168914202DA491C6160FC
:101F70000EE0FEF7C7F9FEF7EFF813490870FEF719
:101F8000EBF812490870FEF7E7F811490870656030
:101F900010480078002803D00F480168491C0160F0
:101FA00070BD0000400100202400002060EA000015
:101FB000FFFF000014000020040000200000C842C1
:101FC0000000F0430C000020100000201100002051
:101FD000120000201C000020200000207047FEE7B7
:101FE00008B5002000900648006880694005400F51
:101FF000034802D0FEF727FE08BDFEF753FE08BDDA
:102000005C00002010B5406A0021826B002A00D0DD
:102010005163C26B002A00D0516300F027FB10BD52
:10202000F0B504460022CE0740342823B025002E08
:1020300005D0667842221F46B74300D0F2228E07B1
:1020400005D5442664783243A34300D02A43CB0B02
:1020500001D0B8231A43102908D0202907D04029DD
:1020600005D00068016891430160F0BD90210A43EA
:10207000F7E701688A69D243920701D400228A6295
:1020800000688169C943C90703D0816901221143EE
:1020900081617047F8B505460446403568782821C7
:1020A0008143206804D00821C16100202870F8BD58
:1020B0008169C903CF0F8169FE230E0C81681E4020
:1020C0008A05C168920D19408C46E168022916D133
:1020D0000621D3090E400B409E420FD1A16C491C32
:1020E000A164A16C0229E2D10021A1640823C3618B
:1020F000297039462046FEF7A5FDF8BD6646012148
:10210000C9032046FFF78CFF002028703246F0E715
:10211000F8B505460446403568780026AE703D4A5D
:10212000E2626685626C0A436264282832D02928FC
:1021300030D02A282ED038492046FFF771FF20469C
:10214000FFF797FF6878602812D020216970206817
:102150008269D24392060BD48269D243D20605D457
:102160001022C261606C0422104360642068C16167
:102170006663206BA16B294F002903D0112812D070
:10218000212810D0E16B002925D0122827D0222841
:1021900025D020E003212046FFF742FF2820687069
:1021A0001F486063E5E720680168490404D50168B9
:1021B0000122920391430160A06BFEF751FB0128BD
:1021C00009D0A06B47632E70A06BFEF725FB00289B
:1021D00004D0A06B1AE0204600F048FAF8BD206851
:1021E0000168090404D501680122D203914301600A
:1021F000E06BFEF735FB0128EDD0E06B47632E70F6
:10220000E06BFEF709FB0028E8D0E06B416B8847E4
:10221000F8BD00000000FFFF03800000052000085B
:102220003D25000870B504461648E0620025256388
:10223000202220464030064642708570C8436563C0
:10224000400712D42068406A616A0870606A401CC6
:102250006062208D002808D0401E2085608D401EC1
:102260006085606C04210843606407492046FFF7DD
:10227000D7FE21681020C86135702046FEF776FD34
:1022800070BD00000000FFFF03800000F8B5026889
:10229000044616680546403568780F462021D1610E
:1022A000212806D0292804D0222808D02A2806D0A0
:1022B0000CE042492046FFF7B3FE212005E03F49EC
:1022C0002046491CFFF7ACFE2220206320684168AD
:1022D0000122D2031143416020684168384A11400D
:1022E00041602046FFF7C5FEF043410407D4206853
:1022F00001680122920391430160A06B08E0000491
:102300000BD4206802680121C9038A430260E06B94
:10231000002802D0006840686085F8434007042127
:1023200000280FDB20688F43406A626A1070606A81
:10233000401C6062208D002804D0401E2085608DE6
:10234000401E6085608D002802D0606C0843606488
:102350000026AE706663606C00280BD0616C20466E
:10236000FFF7D6FE6878282803D139462046FFF7C4
:1023700059FFF8BDE06A134FB8420BD0204600F079
:1023800023F8E7622020687026632E702046FEF74F
:10239000EDFCF8BD6878222807D0202068702663FD
:1023A0002E702046FEF71FFDF8BD202068702663C2
:1023B0002E702046FEF716FDF8BD000001800000DB
:1023C00000E800FE0000FFFF70B5054600680168E8
:1023D00000262C464034A670C9434A0403D4016841
:1023E0000122920304E0090404D401680122D2030B
:1023F000914301606178282029290ED061782A292B
:102400000AD160702220286302212846FFF708FEC7
:1024100026702846FEF7E6FC70BD60702120286318
:1024200001212846FFF7FCFD26702846FEF7DBFC5D
:1024300070BD0000F7B50446006882B081690026CF
:102440002746C906403735460092002942DA102156
:10245000C16131E00398401C2ED0FEF7A3FB009928
:10246000411A0398814201D8002825D1206841688B
:10247000012292031140BA788369DB431B0416D40E
:1024800001239B03994212D0202A10D0416819439E
:102490004160FEF787FB009009E0FEF783FB00999F
:1024A000401A192803D920200543012604E020689A
:1024B0008069C0438006F0D4206880698006C00F20
:1024C0003043C7D0002E02D121682020C8610420EB
:1024D0000543012621688869C20504D501221543F8
:1024E0001202CA610126410508D508210D43226860
:1024F000C901D1610126800502D40AE0800506D514
:102500000220054321680002C861012601E0002E77
:102510000FD02046FFF7ADFD20684168064A114004
:102520004160606C28436064202078700020B8709F
:102530003870304605B0F0BD00E800FEFEB5C56A53
:1025400004460646403601913078012828D0012003
:1025500030700198D743C04300908006002805DB07
:10256000B80603D420460199FFF790FE00983D4934
:102570003D4AC00630D4F8062ED4638D1020002BBF
:1025800010D02168C861606C042108436064002D8C
:1025900001D0954262D1616C2046FFF7B9FD5DE044
:1025A0000220FEBD7278282A08D1012252069542E7
:1025B00004D120460199FFF735FE4FE07278292AB1
:1025C00007D18D4205D02168C8612046FFF751FD33
:1025D00041E02168C86141E00098400717D47807BE
:1025E00015D4608D00280CD02068406A626A107093
:1025F000606A401C6062208D401E2085608D401EF8
:102600006085608D002829D18D4224D126E0009874
:10261000000706D4380704D420460199FFF73AFD95
:102620001CE00098800719D4B80717D4608D0028E3
:102630000DD0606A216800788862606A401C606220
:10264000608D401E6085208D401E208506E09542ED
:1026500001D0002D02D12046FFF7B6FE00203070D9
:10266000FEBD00000000FFFF0000000110B50146A4
:1026700040314B780022602B04D002630A70FEF7D1
:1026800019FB10BD20234B7002630A70FEF7D9FAC4
:1026900010BDF8B51E4617460D4604461EE0701CD8
:1026A0001CD0FEF77FFA0699401AB04201D8002EDE
:1026B00014D120688169284688430DD00020B84293
:1026C0000CD1616C202001436164403460700020B3
:1026D000A07020700120F8BD0120F0E7206881691A
:1026E0002846884304D00020B842D8D00020F8BD46
:1026F0000120F9E7F7B520260027054604464035B6
:102700003DE02046029A0199FFF794FE002801D08F
:102710000120FEBD20688069C04380061BD420686C
:102720008169C943490702D4218D00292CD18169CF
:10273000C943C90604D41021C1610420606400E0CB
:1027400067642068C66120684168104A1140416092
:102750006E70AF7011E0FEF725FA0299411A0198E8
:10276000814201D800280AD120688069C04340070F
:1027700005D5606C304360646E702F70C8E72068C8
:102780008069C0434007BCD40020FEBD00E800FEC5
:1027900070B516460D4604461EE0324629462046D0
:1027A000FFF748FE002801D0012070BDFEF7FAF9BE
:1027B000801BA84201D8002D0ED120688069C0433B
:1027C000800609D5616C202001436164403460704B
:1027D0000020A0702070E7E720688069C043800671
:1027E000DBD4002070BD70B516460D46044620E0CF
:1027F000324629462046FFF71DFE002801D0012061
:1028000070BD681C15D0FEF7CDF9801BA84201D819
:10281000002D0ED120688069C043800709D5616C06
:10282000202001436164403460700020A07020705B
:10283000E5E720688069C0438007D9D4002070BDD7
:1028400008B50848416901221143416140691040BF
:102850000022009011460B20FEF75EFC0B20FEF7D5
:102860004FFC08BD0010024030B587B01421684607
:10287000FDF7C5FD16484269012189050A434261F9
:1028800042690A400592426949110A43426140691E
:1028900009250840ED06059000222F212846FEF765
:1028A0007AF92F20009001240320039001940294D0
:1028B00069462846FEF798F8102000900020019005
:1028C000694602942846FEF78FF807B030BD000035
:1028D0000010024010B514481249016013494160CC
:1028E000162181600121C160002101614161816186
:1028F000C1610162FEF7E0F9002801D0FDF78AFF0F
:1029000000210948FEF754F9002801D0FDF782FFA5
:1029100000210548FEF771F9002801D0FDF77AFF84
:1029200010BD0000005400405C0000200E09002093
:1029300010B50A4808490160632141600021FF2267
:102940008160E0320161C2608161FEF785FF00288D
:1029500001D0FDF75FFF10BD0020004040010020C6
:1029600010B596B000240F941094119412941394FF
:102970001C2108A81494FDF742FD20216846FDF7AC
:102980003EFD2C482A4901602B4984604160FF21AB
:102990000461E0314461C16080218161FEF75CFF28
:1029A000002801D0FDF736FF012000030F900FA98A
:1029B0002048FEF7C1FF002801D0FDF72BFF1D487E
:1029C000FFF77FF9002801D0FDF724FF139413A926
:1029D00018481494FEF7D8FE002801D0FDF71AFF1E
:1029E00060200D94099408900A940B940C94002292
:1029F00008A90E940F48FFF7FCF8002801D0FDF756
:102A000009FF01200094400302940590019403946F
:102A10000494694607940748FEF786FE002801D013
:102A2000FDF7F8FE0348FFF7A9F816B010BD000047
:102A3000002C0140B0000020E703000010B58AB070
:102A4000002407941C2168460894FDF7D8FC164919
:102A5000164812C0046084603B210461416008385C
:102A6000FFF72FF9002801D0FDF7D4FE079407A93E
:102A70000E480894FEF788FE002801D0FDF7CAFE34
:102A80006020009001940294002269460494074853
:102A9000FFF7AFF8002801D0FDF7BCFE0348FFF7B1
:102AA0006DF80AB010BD000000040040F8000020DE
:102AB000FEE7704710B5A823024A00210248FFF73D
:102AC00057F910BDCC010020F8000020F3B506280E
:102AD0003BD86A465379602250431C4A002107259F
:102AE000012682186F1A3446BC403046234201D07A
:102AF000262400E013248F00491CC9B2D4510829B0
:102B0000F0D36B4608211B790F256E1A0446B4409A
:102B1000234201D0262400E013248E00491CC9B2B0
:102B200094511029F1D36B4610219B791724651A13
:102B30000646AE40334201D0262500E013258E0024
:102B4000491CC9B295511829F1D3FCBDCC01002014
:102B500000200649024683005B18FF33FF3302332F
:102B6000401CC0B21A641828F5D37047CC0100206D
:102B7000704710B5FEF776FA10BD30B595B030212C
:102B80006846FDF73CFC00240F94032000900120D0
:102B90000D9410941294019003900E9413941020AD
:102BA00004900003099000010C9402250A901194EE
:102BB00008950B946846FEF7D9FB002801D072B641
:102BC000FEE707200C900E9401210D950F940CA8A0
:102BD000FEF71AFB002801D072B6FEE72020109005
:102BE000139410A8FEF79CFA002801D072B6FEE7F5
:102BF00015B030BD7047000010B50248FEF70CFF5D
:102C000010BD00004001002070B50268174B184E3F
:102C1000984201D0B04203D17024A2434C682243B1
:102C2000144C154D984208D0B04206D0134EB04215
:102C300003D0A04201D0A84204D103263602B243F9
:102C4000CE6832438026B2434E69324302608A68BE
:102C5000C2620A688262984203D0A04201D0A842B0
:102C600001D1096901630121416170BD002C01405E
:102C700000040040004401400048014000200040A2
:102C800010B5CB06DB0E0121046A99408C43046227
:102C9000016A9A401143016210BD10B5CB06DB0EEC
:102CA0000421046A99408C430462016A9A401143EA
:102CB000016210BD10B5446A0121626A824206D1E8
:102CC00021778069002822D13E2001551FE0A26AA9
:102CD000824207D1022222778069002817D13F2043
:102CE000015514E0E26A824207D10422227780690A
:102CF00000280CD14020015509E0226B824206D108
:102D0000082222778069002801D141200155204600
:102D1000FFF72CF80020207710BD10B5446A616AD7
:102D2000814201D101200DE0A16A814201D102203E
:102D300008E0E16A814201D1042003E0216B814275
:102D400001D1082020772046FFF711F800202077D6
:102D500010BD10B5446A0121626A824203D1217715
:102D60003E20015519E0A26A824204D10220207758
:102D70003F20015511E0E26A824204D1042020770D
:102D80004020015509E0226B824204D108202077BF
:102D90004120015501E03D2001552046FEF73AFE55
:102DA0000020207710BD30B58468FF252D021B025E
:102DB0001343AC430B432343836030BD82687023CD
:102DC0009A430A4307210A4382607047F0B5026ABA
:102DD000520852000262056A436882697024A24365
:102DE00092080C6892001443022295438A68134E9D
:102DF0002A43114DA84204D0B04202D0104FB8422D
:102E000006D10827BA43CF681743042297433A46AE
:102E1000A84204D0B04202D0094DA84206D10325F1
:102E20002D02AB434D691D438B692B434360846185
:102E3000496841630262F0BD002C0140004401403A
:102E40000048014070B5026A10239A430262046A86
:102E50004368826973252D02AA430D682D0215432C
:102E6000202294438A6812012243104CA04208D1C8
:102E70001446CA688026B443120122434024A24368
:102E800005E00B4CA04202D00A4CA04208D103241A
:102E9000A402A3434C69A4001C438B699B002343F9
:102EA0004360856149688163026270BD002C014006
:102EB000004401400048014070B5026AFF2301331D
:102EC0009A430262046A4368C2697025AA43920861
:102ED0000D68920015430122520294438A6812023F
:102EE0002243104CA04207D1C414A243CC68240250
:102EF00022430615B24305E00B4CA04202D00B4C16
:102F0000A04208D103242403A3434C6924011C4399
:102F10008B691B0123434360C5614968C163026239
:102F200070BD0000002C01400044014000480140F9
:102F300030B5026A01231B039A430262056A4268A4
:102F4000C36973242402A3430C6824021C43012395
:102F50005B039D438B681B032B430A4DA84205D09E
:102F6000094DA84202D0094DA84205D10125AD0363
:102F7000AA434D69AD012A434260C46149680164B6
:102F8000036230BD002C0140004401400048014074
:102F900030B5036A046A6408640004628469F02539
:102FA000AC43120122430A24A3430B438261036210
:102FB00030BD30B5036A1024A34303628469036AF9
:102FC0000F252D031203AC432243A024A343090180
:102FD00019438261016230BDF8B5040C8BB22646FC
:102FE00082B25E430D0C1046370C584336048019EC
:102FF0000021794116466E43370C36048019794119
:1030000026466E438919F8BD8307FF22DB0E9A40DE
:103010008907090E9940002808DB830809489B00AE
:103020001B18186890430843186070470007000F8A
:103030000838830804489B001B18D869904308434C
:10304000D861704700E400E000ED00E0F8B5092524
:10305000ED0610212846FDF799FD0027364C012882
:1030600001D12770676010212846FDF78FFD0028E9
:1030700060D1012020700A20FDF7A4FC1021284611
:10308000FDF784FD2D4E00280BD029E06423022299
:103090002B492C48FDF7A8FE7D2061680001814284
:1030A00005DA10212846FDF771FD0028EED07D20BD
:1030B00061680001814213DA3078022810D1224879
:1030C000016864290BDA19310160192902D04129FC
:1030D00002D005E0282100E03221016000E0076015
:1030E0007D2061680001814224DB10212846FDF724
:1030F0004DFD00281ED13078012802D0022806D0CC
:1031000012E00220307010484B2101600CE00F48A3
:103110000078002808D10120307005E064230222E5
:1031200007490848FDF760FE10212846FDF72EFDEF
:103130000028F3D0F8BD00001C0000200000002093
:10314000480000205C000020040000200100002056
:10315000F8B55F48092400785E4E5F4DE4065F4F86
:10316000012812D002284AD1012220212046FDF751
:1031700012FD3868002857D0282857D032285DD053
:103180004B2863D0642869D06DE0002220212046BE
:10319000FDF701FD3868282813D032281CD04B28B1
:1031A0002ED05A283DD0642829D14D4903226846A3
:1031B000FDF7C6F80620009900F020F900220F2143
:1031C0001AE0307828704748032200786870464833
:1031D00041490078A87001E0444903226846FDF7A0
:1031E000AFF80620009900F009F901220C212046D1
:1031F000FDF7D1FC002203212046FDF7CCFCF8BDF1
:1032000003223B496846FDF79BF80620009900F031
:10321000F5F8012208212046FDF7BDFC0022072118
:10322000EAE703223349C2E7012218E001220E2116
:103230002046FDF7B0FC0022012111E001220C2103
:103240002046FDF7A8FC0022032109E00122082105
:103250002046FDF7A0FC0022072101E000220F21FB
:103260002046FDF798FC24480078002820D1234808
:103270000068282811DA307828701A481649007832
:103280006870194803220078A8706846FDF758F85E
:103290000620009900F0B2F8F8BD014628390A2945
:1032A00002D203221149F0E701463239052902D240
:1032B00003220F49E9E701463739052902D20322E3
:1032C0000C49E2E73C28E7DB03220549DDE7000083
:1032D0000000002010000020340000200400002026
:1032E00031000020110000201200002028000020E2
:1032F0002B0000202E0000200100002008000020EC
:1033000008B5FDF7B7FEFFF738FCFFF7ADFAFFF79A
:1033100097FAFFF7DFFAFFF723FBFFF78FFBFFF7C3
:1033200007FB3048FEF7E4FA00212F48FEF754FA75
:1033300003222E496846FDF703F80620009900F0A5
:103340005DF82B4E2B4C35460A3D2949322302228B
:103350000A392948FDF748FD2878012802D00228BB
:103360000ED015E0687830703223012220492248BF
:10337000FDF7CDFD002060700121217028702EE046
:10338000207830703223012219491B48FDF7BFFD18
:10339000287803281ED16878A0602178012919D1E6
:1033A000282801DA282014E0014628390A2901D208
:1033B00032200EE001463239052901D24B2008E0C7
:1033C00001463739052901D25A2002E03C2801DBA9
:1033D000642060606078012801D102202070FFF72E
:1033E00035FEB2E740010020B00000202B00002095
:1033F00052000020000000205C00002070B50E4646
:103400000546002405E0E0B23146FFF75FFB641C8F
:10341000A4B2AC42F7D3FFF79BFBFFF74BFB70BDA9
:1034200070B5420064414B005C41120E39D01B0E56
:1034300038D0FF2A3CD0FF2B3AD040024902400A44
:10344000490A060045184E43000A090AD2184843A3
:10345000ED017F3A0104731A4019190C4318990FB2
:1034600004D001215B0849075B1A521CD80904D318
:10347000401CF50301D19D0607D0FF2A08D2D505CF
:1034800006D0E4072043401970BD0125A843F4E7A6
:10349000002A01DCE00770BD2402FF202043C005A4
:1034A00070BD1B0EFF2A03D0FF2B01D0E00770BDBB
:1034B000FF2645003606B54206D84D00B54203D872
:1034C000D218FF2A00D0E7E7004870BD0000C07F97
:1034D00002030405060708090A0B0C0D0E0F101055
:1034E0000102030405060708090A0B0C0D0E0F1054
:1034F00000000000000000000102030406070809A4
:103500008182838485868788898B8C8D8E8F91922A
:1035100093959697999A9C9D9FA0A2A3A5A7A8AAC8
:10352000ACAEB0B2B3B5B7B9BCBEC0C2C5C7C9CCEA
:10353000CED1D4D7D9DCDFE2E6E9ECF0F3F7FAFE3E
:10354000603500080000002048000000F40000087A
:10355000A835000848000020680B00001001000892
:10356000020100004B00000000000000000000000D
:10357000000000000000000000000000000000004B
:1035800000000000000000007FFFFFFFFF00FF7F42
:1035900000FF000000000000010000000400000027
:0835A0000000000000127A0097
:04000005080000B13E
:00000001FF
